{
	"Back-end/soNguyenTo.sol": {
		"Prime": {
			"abi": [
				{
					"inputs": [],
					"stateMutability": "nonpayable",
					"type": "constructor"
				},
				{
					"inputs": [
						{
							"internalType": "uint256",
							"name": "num",
							"type": "uint256"
						}
					],
					"name": "isPrime",
					"outputs": [
						{
							"internalType": "bool",
							"name": "",
							"type": "bool"
						}
					],
					"stateMutability": "pure",
					"type": "function"
				},
				{
					"inputs": [
						{
							"internalType": "uint256",
							"name": "n",
							"type": "uint256"
						}
					],
					"name": "printFirstPrime",
					"outputs": [
						{
							"internalType": "uint256[]",
							"name": "",
							"type": "uint256[]"
						}
					],
					"stateMutability": "view",
					"type": "function"
				}
			],
			"devdoc": {
				"kind": "dev",
				"methods": {},
				"version": 1
			},
			"evm": {
				"assembly": "    /* \"Back-end/soNguyenTo.sol\":226:937  contract Prime is iPrime {\r... */\n  mstore(0x40, 0x80)\n    /* \"Back-end/soNguyenTo.sol\":258:274  constructor (){} */\n  callvalue\n  dup1\n  iszero\n  tag_1\n  jumpi\n  0x00\n  dup1\n  revert\ntag_1:\n  pop\n    /* \"Back-end/soNguyenTo.sol\":226:937  contract Prime is iPrime {\r... */\n  dataSize(sub_0)\n  dup1\n  dataOffset(sub_0)\n  0x00\n  codecopy\n  0x00\n  return\nstop\n\nsub_0: assembly {\n        /* \"Back-end/soNguyenTo.sol\":226:937  contract Prime is iPrime {\r... */\n      mstore(0x40, 0x80)\n      callvalue\n      dup1\n      iszero\n      tag_1\n      jumpi\n      0x00\n      dup1\n      revert\n    tag_1:\n      pop\n      jumpi(tag_2, lt(calldatasize, 0x04))\n      shr(0xe0, calldataload(0x00))\n      dup1\n      0x035ea91e\n      eq\n      tag_3\n      jumpi\n      dup1\n      0x42703494\n      eq\n      tag_4\n      jumpi\n    tag_2:\n      0x00\n      dup1\n      revert\n        /* \"Back-end/soNguyenTo.sol\":572:934  function printFirstPrime(uint n) external override view returns (uint[] memory){\r... */\n    tag_3:\n      tag_5\n      0x04\n      dup1\n      calldatasize\n      sub\n      dup2\n      add\n      swap1\n      tag_6\n      swap2\n      swap1\n      tag_7\n      jump\t// in\n    tag_6:\n      tag_8\n      jump\t// in\n    tag_5:\n      mload(0x40)\n      tag_9\n      swap2\n      swap1\n      tag_10\n      jump\t// in\n    tag_9:\n      mload(0x40)\n      dup1\n      swap2\n      sub\n      swap1\n      return\n        /* \"Back-end/soNguyenTo.sol\":282:564  function isPrime(uint num) external override pure returns (bool){\r... */\n    tag_4:\n      tag_11\n      0x04\n      dup1\n      calldatasize\n      sub\n      dup2\n      add\n      swap1\n      tag_12\n      swap2\n      swap1\n      tag_7\n      jump\t// in\n    tag_12:\n      tag_13\n      jump\t// in\n    tag_11:\n      mload(0x40)\n      tag_14\n      swap2\n      swap1\n      tag_15\n      jump\t// in\n    tag_14:\n      mload(0x40)\n      dup1\n      swap2\n      sub\n      swap1\n      return\n        /* \"Back-end/soNguyenTo.sol\":572:934  function printFirstPrime(uint n) external override view returns (uint[] memory){\r... */\n    tag_8:\n        /* \"Back-end/soNguyenTo.sol\":637:650  uint[] memory */\n      0x60\n        /* \"Back-end/soNguyenTo.sol\":662:670  uint dem */\n      0x00\n        /* \"Back-end/soNguyenTo.sol\":685:691  uint i */\n      dup1\n        /* \"Back-end/soNguyenTo.sol\":694:695  2 */\n      0x02\n        /* \"Back-end/soNguyenTo.sol\":685:695  uint i = 2 */\n      swap1\n      pop\n        /* \"Back-end/soNguyenTo.sol\":706:723  uint[] memory arr */\n      0x00\n        /* \"Back-end/soNguyenTo.sol\":737:738  n */\n      dup5\n        /* \"Back-end/soNguyenTo.sol\":726:739  new uint[](n) */\n      0xffffffffffffffff\n      dup2\n      gt\n      iszero\n      tag_17\n      jumpi\n      tag_18\n      tag_19\n      jump\t// in\n    tag_18:\n    tag_17:\n      mload(0x40)\n      swap1\n      dup1\n      dup3\n      mstore\n      dup1\n      0x20\n      mul\n      0x20\n      add\n      dup3\n      add\n      0x40\n      mstore\n      dup1\n      iszero\n      tag_20\n      jumpi\n      dup2\n      0x20\n      add\n      0x20\n      dup3\n      mul\n      dup1\n      calldatasize\n      dup4\n      calldatacopy\n      dup1\n      dup3\n      add\n      swap2\n      pop\n      pop\n      swap1\n      pop\n    tag_20:\n      pop\n        /* \"Back-end/soNguyenTo.sol\":706:739  uint[] memory arr = new uint[](n) */\n      swap1\n      pop\n        /* \"Back-end/soNguyenTo.sol\":750:906  while(dem < n){\r... */\n    tag_21:\n        /* \"Back-end/soNguyenTo.sol\":762:763  n */\n      dup5\n        /* \"Back-end/soNguyenTo.sol\":756:759  dem */\n      dup4\n        /* \"Back-end/soNguyenTo.sol\":756:763  dem < n */\n      lt\n        /* \"Back-end/soNguyenTo.sol\":750:906  while(dem < n){\r... */\n      iszero\n      tag_22\n      jumpi\n        /* \"Back-end/soNguyenTo.sol\":801:805  true */\n      0x01\n        /* \"Back-end/soNguyenTo.sol\":782:805  this.isPrime(i) == true */\n      iszero\n      iszero\n        /* \"Back-end/soNguyenTo.sol\":782:786  this */\n      address\n        /* \"Back-end/soNguyenTo.sol\":782:794  this.isPrime */\n      0xffffffffffffffffffffffffffffffffffffffff\n      and\n      0x42703494\n        /* \"Back-end/soNguyenTo.sol\":795:796  i */\n      dup5\n        /* \"Back-end/soNguyenTo.sol\":782:797  this.isPrime(i) */\n      mload(0x40)\n      dup3\n      0xffffffff\n      and\n      0xe0\n      shl\n      dup2\n      mstore\n      0x04\n      add\n      tag_23\n      swap2\n      swap1\n      tag_24\n      jump\t// in\n    tag_23:\n      0x20\n      mload(0x40)\n      dup1\n      dup4\n      sub\n      dup2\n      dup7\n      dup1\n      extcodesize\n      iszero\n      dup1\n      iszero\n      tag_25\n      jumpi\n      0x00\n      dup1\n      revert\n    tag_25:\n      pop\n      gas\n      staticcall\n      iszero\n      dup1\n      iszero\n      tag_27\n      jumpi\n      returndatasize\n      0x00\n      dup1\n      returndatacopy\n      revert(0x00, returndatasize)\n    tag_27:\n      pop\n      pop\n      pop\n      pop\n      mload(0x40)\n      returndatasize\n      not(0x1f)\n      0x1f\n      dup3\n      add\n      and\n      dup3\n      add\n      dup1\n      0x40\n      mstore\n      pop\n      dup2\n      add\n      swap1\n      tag_28\n      swap2\n      swap1\n      tag_29\n      jump\t// in\n    tag_28:\n        /* \"Back-end/soNguyenTo.sol\":782:805  this.isPrime(i) == true */\n      iszero\n      iszero\n      eq\n        /* \"Back-end/soNguyenTo.sol\":779:877  if(this.isPrime(i) == true){\r... */\n      iszero\n      tag_30\n      jumpi\n        /* \"Back-end/soNguyenTo.sol\":836:837  i */\n      dup2\n        /* \"Back-end/soNguyenTo.sol\":825:828  arr */\n      dup2\n        /* \"Back-end/soNguyenTo.sol\":829:832  dem */\n      dup5\n        /* \"Back-end/soNguyenTo.sol\":825:833  arr[dem] */\n      dup2\n      mload\n      dup2\n      lt\n      tag_31\n      jumpi\n      tag_32\n      tag_33\n      jump\t// in\n    tag_32:\n    tag_31:\n      0x20\n      mul\n      0x20\n      add\n      add\n        /* \"Back-end/soNguyenTo.sol\":825:837  arr[dem] = i */\n      dup2\n      dup2\n      mstore\n      pop\n      pop\n        /* \"Back-end/soNguyenTo.sol\":856:861  dem++ */\n      dup3\n      dup1\n      tag_34\n      swap1\n      tag_35\n      jump\t// in\n    tag_34:\n      swap4\n      pop\n      pop\n        /* \"Back-end/soNguyenTo.sol\":779:877  if(this.isPrime(i) == true){\r... */\n    tag_30:\n        /* \"Back-end/soNguyenTo.sol\":891:894  i++ */\n      dup2\n      dup1\n      tag_36\n      swap1\n      tag_35\n      jump\t// in\n    tag_36:\n      swap3\n      pop\n      pop\n        /* \"Back-end/soNguyenTo.sol\":750:906  while(dem < n){\r... */\n      jump(tag_21)\n    tag_22:\n        /* \"Back-end/soNguyenTo.sol\":923:926  arr */\n      dup1\n        /* \"Back-end/soNguyenTo.sol\":916:926  return arr */\n      swap4\n      pop\n      pop\n      pop\n      pop\n        /* \"Back-end/soNguyenTo.sol\":572:934  function printFirstPrime(uint n) external override view returns (uint[] memory){\r... */\n      swap2\n      swap1\n      pop\n      jump\t// out\n        /* \"Back-end/soNguyenTo.sol\":282:564  function isPrime(uint num) external override pure returns (bool){\r... */\n    tag_13:\n        /* \"Back-end/soNguyenTo.sol\":341:345  bool */\n      0x00\n        /* \"Back-end/soNguyenTo.sol\":366:367  2 */\n      0x02\n        /* \"Back-end/soNguyenTo.sol\":360:363  num */\n      dup3\n        /* \"Back-end/soNguyenTo.sol\":360:367  num < 2 */\n      lt\n        /* \"Back-end/soNguyenTo.sol\":357:407  if(num < 2){\r... */\n      iszero\n      tag_38\n      jumpi\n        /* \"Back-end/soNguyenTo.sol\":390:395  false */\n      0x00\n        /* \"Back-end/soNguyenTo.sol\":383:395  return false */\n      swap1\n      pop\n      jump(tag_37)\n        /* \"Back-end/soNguyenTo.sol\":357:407  if(num < 2){\r... */\n    tag_38:\n        /* \"Back-end/soNguyenTo.sol\":421:427  uint i */\n      0x00\n        /* \"Back-end/soNguyenTo.sol\":430:431  2 */\n      0x02\n        /* \"Back-end/soNguyenTo.sol\":421:431  uint i = 2 */\n      swap1\n      pop\n        /* \"Back-end/soNguyenTo.sol\":417:535  for(uint i = 2; i < num; i++){\r... */\n    tag_39:\n        /* \"Back-end/soNguyenTo.sol\":437:440  num */\n      dup3\n        /* \"Back-end/soNguyenTo.sol\":433:434  i */\n      dup2\n        /* \"Back-end/soNguyenTo.sol\":433:440  i < num */\n      lt\n        /* \"Back-end/soNguyenTo.sol\":417:535  for(uint i = 2; i < num; i++){\r... */\n      iszero\n      tag_40\n      jumpi\n        /* \"Back-end/soNguyenTo.sol\":475:476  0 */\n      0x00\n        /* \"Back-end/soNguyenTo.sol\":470:471  i */\n      dup2\n        /* \"Back-end/soNguyenTo.sol\":464:467  num */\n      dup5\n        /* \"Back-end/soNguyenTo.sol\":464:471  num % i */\n      tag_42\n      swap2\n      swap1\n      tag_43\n      jump\t// in\n    tag_42:\n        /* \"Back-end/soNguyenTo.sol\":464:476  num % i == 0 */\n      eq\n        /* \"Back-end/soNguyenTo.sol\":461:524  if(num % i == 0){\r... */\n      iszero\n      tag_44\n      jumpi\n        /* \"Back-end/soNguyenTo.sol\":503:508  false */\n      0x00\n        /* \"Back-end/soNguyenTo.sol\":496:508  return false */\n      swap2\n      pop\n      pop\n      jump(tag_37)\n        /* \"Back-end/soNguyenTo.sol\":461:524  if(num % i == 0){\r... */\n    tag_44:\n        /* \"Back-end/soNguyenTo.sol\":442:445  i++ */\n      dup1\n      dup1\n      tag_45\n      swap1\n      tag_35\n      jump\t// in\n    tag_45:\n      swap2\n      pop\n      pop\n        /* \"Back-end/soNguyenTo.sol\":417:535  for(uint i = 2; i < num; i++){\r... */\n      jump(tag_39)\n    tag_40:\n      pop\n        /* \"Back-end/soNguyenTo.sol\":552:556  true */\n      0x01\n        /* \"Back-end/soNguyenTo.sol\":545:556  return true */\n      swap1\n      pop\n        /* \"Back-end/soNguyenTo.sol\":282:564  function isPrime(uint num) external override pure returns (bool){\r... */\n    tag_37:\n      swap2\n      swap1\n      pop\n      jump\t// out\n        /* \"#utility.yul\":7:144   */\n    tag_47:\n        /* \"#utility.yul\":61:66   */\n      0x00\n        /* \"#utility.yul\":92:98   */\n      dup2\n        /* \"#utility.yul\":86:99   */\n      mload\n        /* \"#utility.yul\":77:99   */\n      swap1\n      pop\n        /* \"#utility.yul\":108:138   */\n      tag_49\n        /* \"#utility.yul\":132:137   */\n      dup2\n        /* \"#utility.yul\":108:138   */\n      tag_50\n      jump\t// in\n    tag_49:\n        /* \"#utility.yul\":7:144   */\n      swap3\n      swap2\n      pop\n      pop\n      jump\t// out\n        /* \"#utility.yul\":150:289   */\n    tag_51:\n        /* \"#utility.yul\":196:201   */\n      0x00\n        /* \"#utility.yul\":234:240   */\n      dup2\n        /* \"#utility.yul\":221:241   */\n      calldataload\n        /* \"#utility.yul\":212:241   */\n      swap1\n      pop\n        /* \"#utility.yul\":250:283   */\n      tag_53\n        /* \"#utility.yul\":277:282   */\n      dup2\n        /* \"#utility.yul\":250:283   */\n      tag_54\n      jump\t// in\n    tag_53:\n        /* \"#utility.yul\":150:289   */\n      swap3\n      swap2\n      pop\n      pop\n      jump\t// out\n        /* \"#utility.yul\":295:640   */\n    tag_29:\n        /* \"#utility.yul\":362:368   */\n      0x00\n        /* \"#utility.yul\":411:413   */\n      0x20\n        /* \"#utility.yul\":399:408   */\n      dup3\n        /* \"#utility.yul\":390:397   */\n      dup5\n        /* \"#utility.yul\":386:409   */\n      sub\n        /* \"#utility.yul\":382:414   */\n      slt\n        /* \"#utility.yul\":379:498   */\n      iszero\n      tag_56\n      jumpi\n        /* \"#utility.yul\":417:496   */\n      tag_57\n      tag_58\n      jump\t// in\n    tag_57:\n        /* \"#utility.yul\":379:498   */\n    tag_56:\n        /* \"#utility.yul\":537:538   */\n      0x00\n        /* \"#utility.yul\":562:623   */\n      tag_59\n        /* \"#utility.yul\":615:622   */\n      dup5\n        /* \"#utility.yul\":606:612   */\n      dup3\n        /* \"#utility.yul\":595:604   */\n      dup6\n        /* \"#utility.yul\":591:613   */\n      add\n        /* \"#utility.yul\":562:623   */\n      tag_47\n      jump\t// in\n    tag_59:\n        /* \"#utility.yul\":552:623   */\n      swap2\n      pop\n        /* \"#utility.yul\":508:633   */\n      pop\n        /* \"#utility.yul\":295:640   */\n      swap3\n      swap2\n      pop\n      pop\n      jump\t// out\n        /* \"#utility.yul\":646:975   */\n    tag_7:\n        /* \"#utility.yul\":705:711   */\n      0x00\n        /* \"#utility.yul\":754:756   */\n      0x20\n        /* \"#utility.yul\":742:751   */\n      dup3\n        /* \"#utility.yul\":733:740   */\n      dup5\n        /* \"#utility.yul\":729:752   */\n      sub\n        /* \"#utility.yul\":725:757   */\n      slt\n        /* \"#utility.yul\":722:841   */\n      iszero\n      tag_61\n      jumpi\n        /* \"#utility.yul\":760:839   */\n      tag_62\n      tag_58\n      jump\t// in\n    tag_62:\n        /* \"#utility.yul\":722:841   */\n    tag_61:\n        /* \"#utility.yul\":880:881   */\n      0x00\n        /* \"#utility.yul\":905:958   */\n      tag_63\n        /* \"#utility.yul\":950:957   */\n      dup5\n        /* \"#utility.yul\":941:947   */\n      dup3\n        /* \"#utility.yul\":930:939   */\n      dup6\n        /* \"#utility.yul\":926:948   */\n      add\n        /* \"#utility.yul\":905:958   */\n      tag_51\n      jump\t// in\n    tag_63:\n        /* \"#utility.yul\":895:958   */\n      swap2\n      pop\n        /* \"#utility.yul\":851:968   */\n      pop\n        /* \"#utility.yul\":646:975   */\n      swap3\n      swap2\n      pop\n      pop\n      jump\t// out\n        /* \"#utility.yul\":981:1160   */\n    tag_64:\n        /* \"#utility.yul\":1050:1060   */\n      0x00\n        /* \"#utility.yul\":1071:1117   */\n      tag_66\n        /* \"#utility.yul\":1113:1116   */\n      dup4\n        /* \"#utility.yul\":1105:1111   */\n      dup4\n        /* \"#utility.yul\":1071:1117   */\n      tag_67\n      jump\t// in\n    tag_66:\n        /* \"#utility.yul\":1149:1153   */\n      0x20\n        /* \"#utility.yul\":1144:1147   */\n      dup4\n        /* \"#utility.yul\":1140:1154   */\n      add\n        /* \"#utility.yul\":1126:1154   */\n      swap1\n      pop\n        /* \"#utility.yul\":981:1160   */\n      swap3\n      swap2\n      pop\n      pop\n      jump\t// out\n        /* \"#utility.yul\":1196:1928   */\n    tag_68:\n        /* \"#utility.yul\":1315:1318   */\n      0x00\n        /* \"#utility.yul\":1344:1398   */\n      tag_70\n        /* \"#utility.yul\":1392:1397   */\n      dup3\n        /* \"#utility.yul\":1344:1398   */\n      tag_71\n      jump\t// in\n    tag_70:\n        /* \"#utility.yul\":1414:1500   */\n      tag_72\n        /* \"#utility.yul\":1493:1499   */\n      dup2\n        /* \"#utility.yul\":1488:1491   */\n      dup6\n        /* \"#utility.yul\":1414:1500   */\n      tag_73\n      jump\t// in\n    tag_72:\n        /* \"#utility.yul\":1407:1500   */\n      swap4\n      pop\n        /* \"#utility.yul\":1524:1580   */\n      tag_74\n        /* \"#utility.yul\":1574:1579   */\n      dup4\n        /* \"#utility.yul\":1524:1580   */\n      tag_75\n      jump\t// in\n    tag_74:\n        /* \"#utility.yul\":1603:1610   */\n      dup1\n        /* \"#utility.yul\":1634:1635   */\n      0x00\n        /* \"#utility.yul\":1619:1903   */\n    tag_76:\n        /* \"#utility.yul\":1644:1650   */\n      dup4\n        /* \"#utility.yul\":1641:1642   */\n      dup2\n        /* \"#utility.yul\":1638:1651   */\n      lt\n        /* \"#utility.yul\":1619:1903   */\n      iszero\n      tag_78\n      jumpi\n        /* \"#utility.yul\":1720:1726   */\n      dup2\n        /* \"#utility.yul\":1714:1727   */\n      mload\n        /* \"#utility.yul\":1747:1810   */\n      tag_79\n        /* \"#utility.yul\":1806:1809   */\n      dup9\n        /* \"#utility.yul\":1791:1804   */\n      dup3\n        /* \"#utility.yul\":1747:1810   */\n      tag_64\n      jump\t// in\n    tag_79:\n        /* \"#utility.yul\":1740:1810   */\n      swap8\n      pop\n        /* \"#utility.yul\":1833:1893   */\n      tag_80\n        /* \"#utility.yul\":1886:1892   */\n      dup4\n        /* \"#utility.yul\":1833:1893   */\n      tag_81\n      jump\t// in\n    tag_80:\n        /* \"#utility.yul\":1823:1893   */\n      swap3\n      pop\n        /* \"#utility.yul\":1679:1903   */\n      pop\n        /* \"#utility.yul\":1666:1667   */\n      0x01\n        /* \"#utility.yul\":1663:1664   */\n      dup2\n        /* \"#utility.yul\":1659:1668   */\n      add\n        /* \"#utility.yul\":1654:1668   */\n      swap1\n      pop\n        /* \"#utility.yul\":1619:1903   */\n      jump(tag_76)\n    tag_78:\n        /* \"#utility.yul\":1623:1637   */\n      pop\n        /* \"#utility.yul\":1919:1922   */\n      dup6\n        /* \"#utility.yul\":1912:1922   */\n      swap4\n      pop\n        /* \"#utility.yul\":1320:1928   */\n      pop\n      pop\n      pop\n        /* \"#utility.yul\":1196:1928   */\n      swap3\n      swap2\n      pop\n      pop\n      jump\t// out\n        /* \"#utility.yul\":1934:2043   */\n    tag_82:\n        /* \"#utility.yul\":2015:2036   */\n      tag_84\n        /* \"#utility.yul\":2030:2035   */\n      dup2\n        /* \"#utility.yul\":2015:2036   */\n      tag_85\n      jump\t// in\n    tag_84:\n        /* \"#utility.yul\":2010:2013   */\n      dup3\n        /* \"#utility.yul\":2003:2037   */\n      mstore\n        /* \"#utility.yul\":1934:2043   */\n      pop\n      pop\n      jump\t// out\n        /* \"#utility.yul\":2049:2157   */\n    tag_67:\n        /* \"#utility.yul\":2126:2150   */\n      tag_87\n        /* \"#utility.yul\":2144:2149   */\n      dup2\n        /* \"#utility.yul\":2126:2150   */\n      tag_88\n      jump\t// in\n    tag_87:\n        /* \"#utility.yul\":2121:2124   */\n      dup3\n        /* \"#utility.yul\":2114:2151   */\n      mstore\n        /* \"#utility.yul\":2049:2157   */\n      pop\n      pop\n      jump\t// out\n        /* \"#utility.yul\":2163:2281   */\n    tag_89:\n        /* \"#utility.yul\":2250:2274   */\n      tag_91\n        /* \"#utility.yul\":2268:2273   */\n      dup2\n        /* \"#utility.yul\":2250:2274   */\n      tag_88\n      jump\t// in\n    tag_91:\n        /* \"#utility.yul\":2245:2248   */\n      dup3\n        /* \"#utility.yul\":2238:2275   */\n      mstore\n        /* \"#utility.yul\":2163:2281   */\n      pop\n      pop\n      jump\t// out\n        /* \"#utility.yul\":2287:2660   */\n    tag_10:\n        /* \"#utility.yul\":2430:2434   */\n      0x00\n        /* \"#utility.yul\":2468:2470   */\n      0x20\n        /* \"#utility.yul\":2457:2466   */\n      dup3\n        /* \"#utility.yul\":2453:2471   */\n      add\n        /* \"#utility.yul\":2445:2471   */\n      swap1\n      pop\n        /* \"#utility.yul\":2517:2526   */\n      dup2\n        /* \"#utility.yul\":2511:2515   */\n      dup2\n        /* \"#utility.yul\":2507:2527   */\n      sub\n        /* \"#utility.yul\":2503:2504   */\n      0x00\n        /* \"#utility.yul\":2492:2501   */\n      dup4\n        /* \"#utility.yul\":2488:2505   */\n      add\n        /* \"#utility.yul\":2481:2528   */\n      mstore\n        /* \"#utility.yul\":2545:2653   */\n      tag_93\n        /* \"#utility.yul\":2648:2652   */\n      dup2\n        /* \"#utility.yul\":2639:2645   */\n      dup5\n        /* \"#utility.yul\":2545:2653   */\n      tag_68\n      jump\t// in\n    tag_93:\n        /* \"#utility.yul\":2537:2653   */\n      swap1\n      pop\n        /* \"#utility.yul\":2287:2660   */\n      swap3\n      swap2\n      pop\n      pop\n      jump\t// out\n        /* \"#utility.yul\":2666:2876   */\n    tag_15:\n        /* \"#utility.yul\":2753:2757   */\n      0x00\n        /* \"#utility.yul\":2791:2793   */\n      0x20\n        /* \"#utility.yul\":2780:2789   */\n      dup3\n        /* \"#utility.yul\":2776:2794   */\n      add\n        /* \"#utility.yul\":2768:2794   */\n      swap1\n      pop\n        /* \"#utility.yul\":2804:2869   */\n      tag_95\n        /* \"#utility.yul\":2866:2867   */\n      0x00\n        /* \"#utility.yul\":2855:2864   */\n      dup4\n        /* \"#utility.yul\":2851:2868   */\n      add\n        /* \"#utility.yul\":2842:2848   */\n      dup5\n        /* \"#utility.yul\":2804:2869   */\n      tag_82\n      jump\t// in\n    tag_95:\n        /* \"#utility.yul\":2666:2876   */\n      swap3\n      swap2\n      pop\n      pop\n      jump\t// out\n        /* \"#utility.yul\":2882:3104   */\n    tag_24:\n        /* \"#utility.yul\":2975:2979   */\n      0x00\n        /* \"#utility.yul\":3013:3015   */\n      0x20\n        /* \"#utility.yul\":3002:3011   */\n      dup3\n        /* \"#utility.yul\":2998:3016   */\n      add\n        /* \"#utility.yul\":2990:3016   */\n      swap1\n      pop\n        /* \"#utility.yul\":3026:3097   */\n      tag_97\n        /* \"#utility.yul\":3094:3095   */\n      0x00\n        /* \"#utility.yul\":3083:3092   */\n      dup4\n        /* \"#utility.yul\":3079:3096   */\n      add\n        /* \"#utility.yul\":3070:3076   */\n      dup5\n        /* \"#utility.yul\":3026:3097   */\n      tag_89\n      jump\t// in\n    tag_97:\n        /* \"#utility.yul\":2882:3104   */\n      swap3\n      swap2\n      pop\n      pop\n      jump\t// out\n        /* \"#utility.yul\":3191:3323   */\n    tag_75:\n        /* \"#utility.yul\":3258:3262   */\n      0x00\n        /* \"#utility.yul\":3281:3284   */\n      dup2\n        /* \"#utility.yul\":3273:3284   */\n      swap1\n      pop\n        /* \"#utility.yul\":3311:3315   */\n      0x20\n        /* \"#utility.yul\":3306:3309   */\n      dup3\n        /* \"#utility.yul\":3302:3316   */\n      add\n        /* \"#utility.yul\":3294:3316   */\n      swap1\n      pop\n        /* \"#utility.yul\":3191:3323   */\n      swap2\n      swap1\n      pop\n      jump\t// out\n        /* \"#utility.yul\":3329:3443   */\n    tag_71:\n        /* \"#utility.yul\":3396:3402   */\n      0x00\n        /* \"#utility.yul\":3430:3435   */\n      dup2\n        /* \"#utility.yul\":3424:3436   */\n      mload\n        /* \"#utility.yul\":3414:3436   */\n      swap1\n      pop\n        /* \"#utility.yul\":3329:3443   */\n      swap2\n      swap1\n      pop\n      jump\t// out\n        /* \"#utility.yul\":3449:3562   */\n    tag_81:\n        /* \"#utility.yul\":3519:3523   */\n      0x00\n        /* \"#utility.yul\":3551:3555   */\n      0x20\n        /* \"#utility.yul\":3546:3549   */\n      dup3\n        /* \"#utility.yul\":3542:3556   */\n      add\n        /* \"#utility.yul\":3534:3556   */\n      swap1\n      pop\n        /* \"#utility.yul\":3449:3562   */\n      swap2\n      swap1\n      pop\n      jump\t// out\n        /* \"#utility.yul\":3568:3752   */\n    tag_73:\n        /* \"#utility.yul\":3667:3678   */\n      0x00\n        /* \"#utility.yul\":3701:3707   */\n      dup3\n        /* \"#utility.yul\":3696:3699   */\n      dup3\n        /* \"#utility.yul\":3689:3708   */\n      mstore\n        /* \"#utility.yul\":3741:3745   */\n      0x20\n        /* \"#utility.yul\":3736:3739   */\n      dup3\n        /* \"#utility.yul\":3732:3746   */\n      add\n        /* \"#utility.yul\":3717:3746   */\n      swap1\n      pop\n        /* \"#utility.yul\":3568:3752   */\n      swap3\n      swap2\n      pop\n      pop\n      jump\t// out\n        /* \"#utility.yul\":3758:3848   */\n    tag_85:\n        /* \"#utility.yul\":3792:3799   */\n      0x00\n        /* \"#utility.yul\":3835:3840   */\n      dup2\n        /* \"#utility.yul\":3828:3841   */\n      iszero\n        /* \"#utility.yul\":3821:3842   */\n      iszero\n        /* \"#utility.yul\":3810:3842   */\n      swap1\n      pop\n        /* \"#utility.yul\":3758:3848   */\n      swap2\n      swap1\n      pop\n      jump\t// out\n        /* \"#utility.yul\":3854:3931   */\n    tag_88:\n        /* \"#utility.yul\":3891:3898   */\n      0x00\n        /* \"#utility.yul\":3920:3925   */\n      dup2\n        /* \"#utility.yul\":3909:3925   */\n      swap1\n      pop\n        /* \"#utility.yul\":3854:3931   */\n      swap2\n      swap1\n      pop\n      jump\t// out\n        /* \"#utility.yul\":3937:4170   */\n    tag_35:\n        /* \"#utility.yul\":3976:3979   */\n      0x00\n        /* \"#utility.yul\":3999:4023   */\n      tag_107\n        /* \"#utility.yul\":4017:4022   */\n      dup3\n        /* \"#utility.yul\":3999:4023   */\n      tag_88\n      jump\t// in\n    tag_107:\n        /* \"#utility.yul\":3990:4023   */\n      swap2\n      pop\n        /* \"#utility.yul\":4045:4111   */\n      0xffffffffffffffffffffffffffffffffffffffffffffffffffffffffffffffff\n        /* \"#utility.yul\":4038:4043   */\n      dup3\n        /* \"#utility.yul\":4035:4112   */\n      eq\n        /* \"#utility.yul\":4032:4135   */\n      iszero\n      tag_108\n      jumpi\n        /* \"#utility.yul\":4115:4133   */\n      tag_109\n      tag_110\n      jump\t// in\n    tag_109:\n        /* \"#utility.yul\":4032:4135   */\n    tag_108:\n        /* \"#utility.yul\":4162:4163   */\n      0x01\n        /* \"#utility.yul\":4155:4160   */\n      dup3\n        /* \"#utility.yul\":4151:4164   */\n      add\n        /* \"#utility.yul\":4144:4164   */\n      swap1\n      pop\n        /* \"#utility.yul\":3937:4170   */\n      swap2\n      swap1\n      pop\n      jump\t// out\n        /* \"#utility.yul\":4176:4352   */\n    tag_43:\n        /* \"#utility.yul\":4208:4209   */\n      0x00\n        /* \"#utility.yul\":4225:4245   */\n      tag_112\n        /* \"#utility.yul\":4243:4244   */\n      dup3\n        /* \"#utility.yul\":4225:4245   */\n      tag_88\n      jump\t// in\n    tag_112:\n        /* \"#utility.yul\":4220:4245   */\n      swap2\n      pop\n        /* \"#utility.yul\":4259:4279   */\n      tag_113\n        /* \"#utility.yul\":4277:4278   */\n      dup4\n        /* \"#utility.yul\":4259:4279   */\n      tag_88\n      jump\t// in\n    tag_113:\n        /* \"#utility.yul\":4254:4279   */\n      swap3\n      pop\n        /* \"#utility.yul\":4298:4299   */\n      dup3\n        /* \"#utility.yul\":4288:4323   */\n      tag_114\n      jumpi\n        /* \"#utility.yul\":4303:4321   */\n      tag_115\n      tag_116\n      jump\t// in\n    tag_115:\n        /* \"#utility.yul\":4288:4323   */\n    tag_114:\n        /* \"#utility.yul\":4344:4345   */\n      dup3\n        /* \"#utility.yul\":4341:4342   */\n      dup3\n        /* \"#utility.yul\":4337:4346   */\n      mod\n        /* \"#utility.yul\":4332:4346   */\n      swap1\n      pop\n        /* \"#utility.yul\":4176:4352   */\n      swap3\n      swap2\n      pop\n      pop\n      jump\t// out\n        /* \"#utility.yul\":4358:4538   */\n    tag_110:\n        /* \"#utility.yul\":4406:4483   */\n      0x4e487b7100000000000000000000000000000000000000000000000000000000\n        /* \"#utility.yul\":4403:4404   */\n      0x00\n        /* \"#utility.yul\":4396:4484   */\n      mstore\n        /* \"#utility.yul\":4503:4507   */\n      0x11\n        /* \"#utility.yul\":4500:4501   */\n      0x04\n        /* \"#utility.yul\":4493:4508   */\n      mstore\n        /* \"#utility.yul\":4527:4531   */\n      0x24\n        /* \"#utility.yul\":4524:4525   */\n      0x00\n        /* \"#utility.yul\":4517:4532   */\n      revert\n        /* \"#utility.yul\":4544:4724   */\n    tag_116:\n        /* \"#utility.yul\":4592:4669   */\n      0x4e487b7100000000000000000000000000000000000000000000000000000000\n        /* \"#utility.yul\":4589:4590   */\n      0x00\n        /* \"#utility.yul\":4582:4670   */\n      mstore\n        /* \"#utility.yul\":4689:4693   */\n      0x12\n        /* \"#utility.yul\":4686:4687   */\n      0x04\n        /* \"#utility.yul\":4679:4694   */\n      mstore\n        /* \"#utility.yul\":4713:4717   */\n      0x24\n        /* \"#utility.yul\":4710:4711   */\n      0x00\n        /* \"#utility.yul\":4703:4718   */\n      revert\n        /* \"#utility.yul\":4730:4910   */\n    tag_33:\n        /* \"#utility.yul\":4778:4855   */\n      0x4e487b7100000000000000000000000000000000000000000000000000000000\n        /* \"#utility.yul\":4775:4776   */\n      0x00\n        /* \"#utility.yul\":4768:4856   */\n      mstore\n        /* \"#utility.yul\":4875:4879   */\n      0x32\n        /* \"#utility.yul\":4872:4873   */\n      0x04\n        /* \"#utility.yul\":4865:4880   */\n      mstore\n        /* \"#utility.yul\":4899:4903   */\n      0x24\n        /* \"#utility.yul\":4896:4897   */\n      0x00\n        /* \"#utility.yul\":4889:4904   */\n      revert\n        /* \"#utility.yul\":4916:5096   */\n    tag_19:\n        /* \"#utility.yul\":4964:5041   */\n      0x4e487b7100000000000000000000000000000000000000000000000000000000\n        /* \"#utility.yul\":4961:4962   */\n      0x00\n        /* \"#utility.yul\":4954:5042   */\n      mstore\n        /* \"#utility.yul\":5061:5065   */\n      0x41\n        /* \"#utility.yul\":5058:5059   */\n      0x04\n        /* \"#utility.yul\":5051:5066   */\n      mstore\n        /* \"#utility.yul\":5085:5089   */\n      0x24\n        /* \"#utility.yul\":5082:5083   */\n      0x00\n        /* \"#utility.yul\":5075:5090   */\n      revert\n        /* \"#utility.yul\":5225:5342   */\n    tag_58:\n        /* \"#utility.yul\":5334:5335   */\n      0x00\n        /* \"#utility.yul\":5331:5332   */\n      dup1\n        /* \"#utility.yul\":5324:5336   */\n      revert\n        /* \"#utility.yul\":5348:5464   */\n    tag_50:\n        /* \"#utility.yul\":5418:5439   */\n      tag_125\n        /* \"#utility.yul\":5433:5438   */\n      dup2\n        /* \"#utility.yul\":5418:5439   */\n      tag_85\n      jump\t// in\n    tag_125:\n        /* \"#utility.yul\":5411:5416   */\n      dup2\n        /* \"#utility.yul\":5408:5440   */\n      eq\n        /* \"#utility.yul\":5398:5458   */\n      tag_126\n      jumpi\n        /* \"#utility.yul\":5454:5455   */\n      0x00\n        /* \"#utility.yul\":5451:5452   */\n      dup1\n        /* \"#utility.yul\":5444:5456   */\n      revert\n        /* \"#utility.yul\":5398:5458   */\n    tag_126:\n        /* \"#utility.yul\":5348:5464   */\n      pop\n      jump\t// out\n        /* \"#utility.yul\":5470:5592   */\n    tag_54:\n        /* \"#utility.yul\":5543:5567   */\n      tag_128\n        /* \"#utility.yul\":5561:5566   */\n      dup2\n        /* \"#utility.yul\":5543:5567   */\n      tag_88\n      jump\t// in\n    tag_128:\n        /* \"#utility.yul\":5536:5541   */\n      dup2\n        /* \"#utility.yul\":5533:5568   */\n      eq\n        /* \"#utility.yul\":5523:5586   */\n      tag_129\n      jumpi\n        /* \"#utility.yul\":5582:5583   */\n      0x00\n        /* \"#utility.yul\":5579:5580   */\n      dup1\n        /* \"#utility.yul\":5572:5584   */\n      revert\n        /* \"#utility.yul\":5523:5586   */\n    tag_129:\n        /* \"#utility.yul\":5470:5592   */\n      pop\n      jump\t// out\n\n    auxdata: 0xa2646970667358221220ec569857e7e8542a55c45e488bd861836cb223ef2b69f6ea82b4b0e9a68ae70164736f6c63430008070033\n}\n",
				"bytecode": {
					"linkReferences": {},
					"object": "608060405234801561001057600080fd5b506105a8806100206000396000f3fe608060405234801561001057600080fd5b50600436106100365760003560e01c8063035ea91e1461003b578063427034941461006b575b600080fd5b61005560048036038101906100509190610292565b61009b565b6040516100629190610362565b60405180910390f35b61008560048036038101906100809190610292565b6101dc565b6040516100929190610384565b60405180910390f35b60606000806002905060008467ffffffffffffffff8111156100c0576100bf610510565b5b6040519080825280602002602001820160405280156100ee5781602001602082028036833780820191505090505b5090505b848310156101d157600115153073ffffffffffffffffffffffffffffffffffffffff166342703494846040518263ffffffff1660e01b8152600401610137919061039f565b60206040518083038186803b15801561014f57600080fd5b505afa158015610163573d6000803e3d6000fd5b505050506040513d601f19601f820116820180604052508101906101879190610265565b151514156101be57818184815181106101a3576101a26104e1565b5b60200260200101818152505082806101ba90610409565b9350505b81806101c990610409565b9250506100f2565b809350505050919050565b600060028210156101f05760009050610236565b6000600290505b82811015610230576000818461020d9190610452565b141561021d576000915050610236565b808061022890610409565b9150506101f7565b50600190505b919050565b60008151905061024a81610544565b92915050565b60008135905061025f8161055b565b92915050565b60006020828403121561027b5761027a61053f565b5b60006102898482850161023b565b91505092915050565b6000602082840312156102a8576102a761053f565b5b60006102b684828501610250565b91505092915050565b60006102cb8383610344565b60208301905092915050565b60006102e2826103ca565b6102ec81856103e2565b93506102f7836103ba565b8060005b8381101561032857815161030f88826102bf565b975061031a836103d5565b9250506001810190506102fb565b5085935050505092915050565b61033e816103f3565b82525050565b61034d816103ff565b82525050565b61035c816103ff565b82525050565b6000602082019050818103600083015261037c81846102d7565b905092915050565b60006020820190506103996000830184610335565b92915050565b60006020820190506103b46000830184610353565b92915050565b6000819050602082019050919050565b600081519050919050565b6000602082019050919050565b600082825260208201905092915050565b60008115159050919050565b6000819050919050565b6000610414826103ff565b91507fffffffffffffffffffffffffffffffffffffffffffffffffffffffffffffffff82141561044757610446610483565b5b600182019050919050565b600061045d826103ff565b9150610468836103ff565b925082610478576104776104b2565b5b828206905092915050565b7f4e487b7100000000000000000000000000000000000000000000000000000000600052601160045260246000fd5b7f4e487b7100000000000000000000000000000000000000000000000000000000600052601260045260246000fd5b7f4e487b7100000000000000000000000000000000000000000000000000000000600052603260045260246000fd5b7f4e487b7100000000000000000000000000000000000000000000000000000000600052604160045260246000fd5b600080fd5b61054d816103f3565b811461055857600080fd5b50565b610564816103ff565b811461056f57600080fd5b5056fea2646970667358221220ec569857e7e8542a55c45e488bd861836cb223ef2b69f6ea82b4b0e9a68ae70164736f6c63430008070033",
					"opcodes": "PUSH1 0x80 PUSH1 0x40 MSTORE CALLVALUE DUP1 ISZERO PUSH2 0x10 JUMPI PUSH1 0x0 DUP1 REVERT JUMPDEST POP PUSH2 0x5A8 DUP1 PUSH2 0x20 PUSH1 0x0 CODECOPY PUSH1 0x0 RETURN INVALID PUSH1 0x80 PUSH1 0x40 MSTORE CALLVALUE DUP1 ISZERO PUSH2 0x10 JUMPI PUSH1 0x0 DUP1 REVERT JUMPDEST POP PUSH1 0x4 CALLDATASIZE LT PUSH2 0x36 JUMPI PUSH1 0x0 CALLDATALOAD PUSH1 0xE0 SHR DUP1 PUSH4 0x35EA91E EQ PUSH2 0x3B JUMPI DUP1 PUSH4 0x42703494 EQ PUSH2 0x6B JUMPI JUMPDEST PUSH1 0x0 DUP1 REVERT JUMPDEST PUSH2 0x55 PUSH1 0x4 DUP1 CALLDATASIZE SUB DUP2 ADD SWAP1 PUSH2 0x50 SWAP2 SWAP1 PUSH2 0x292 JUMP JUMPDEST PUSH2 0x9B JUMP JUMPDEST PUSH1 0x40 MLOAD PUSH2 0x62 SWAP2 SWAP1 PUSH2 0x362 JUMP JUMPDEST PUSH1 0x40 MLOAD DUP1 SWAP2 SUB SWAP1 RETURN JUMPDEST PUSH2 0x85 PUSH1 0x4 DUP1 CALLDATASIZE SUB DUP2 ADD SWAP1 PUSH2 0x80 SWAP2 SWAP1 PUSH2 0x292 JUMP JUMPDEST PUSH2 0x1DC JUMP JUMPDEST PUSH1 0x40 MLOAD PUSH2 0x92 SWAP2 SWAP1 PUSH2 0x384 JUMP JUMPDEST PUSH1 0x40 MLOAD DUP1 SWAP2 SUB SWAP1 RETURN JUMPDEST PUSH1 0x60 PUSH1 0x0 DUP1 PUSH1 0x2 SWAP1 POP PUSH1 0x0 DUP5 PUSH8 0xFFFFFFFFFFFFFFFF DUP2 GT ISZERO PUSH2 0xC0 JUMPI PUSH2 0xBF PUSH2 0x510 JUMP JUMPDEST JUMPDEST PUSH1 0x40 MLOAD SWAP1 DUP1 DUP3 MSTORE DUP1 PUSH1 0x20 MUL PUSH1 0x20 ADD DUP3 ADD PUSH1 0x40 MSTORE DUP1 ISZERO PUSH2 0xEE JUMPI DUP2 PUSH1 0x20 ADD PUSH1 0x20 DUP3 MUL DUP1 CALLDATASIZE DUP4 CALLDATACOPY DUP1 DUP3 ADD SWAP2 POP POP SWAP1 POP JUMPDEST POP SWAP1 POP JUMPDEST DUP5 DUP4 LT ISZERO PUSH2 0x1D1 JUMPI PUSH1 0x1 ISZERO ISZERO ADDRESS PUSH20 0xFFFFFFFFFFFFFFFFFFFFFFFFFFFFFFFFFFFFFFFF AND PUSH4 0x42703494 DUP5 PUSH1 0x40 MLOAD DUP3 PUSH4 0xFFFFFFFF AND PUSH1 0xE0 SHL DUP2 MSTORE PUSH1 0x4 ADD PUSH2 0x137 SWAP2 SWAP1 PUSH2 0x39F JUMP JUMPDEST PUSH1 0x20 PUSH1 0x40 MLOAD DUP1 DUP4 SUB DUP2 DUP7 DUP1 EXTCODESIZE ISZERO DUP1 ISZERO PUSH2 0x14F JUMPI PUSH1 0x0 DUP1 REVERT JUMPDEST POP GAS STATICCALL ISZERO DUP1 ISZERO PUSH2 0x163 JUMPI RETURNDATASIZE PUSH1 0x0 DUP1 RETURNDATACOPY RETURNDATASIZE PUSH1 0x0 REVERT JUMPDEST POP POP POP POP PUSH1 0x40 MLOAD RETURNDATASIZE PUSH1 0x1F NOT PUSH1 0x1F DUP3 ADD AND DUP3 ADD DUP1 PUSH1 0x40 MSTORE POP DUP2 ADD SWAP1 PUSH2 0x187 SWAP2 SWAP1 PUSH2 0x265 JUMP JUMPDEST ISZERO ISZERO EQ ISZERO PUSH2 0x1BE JUMPI DUP2 DUP2 DUP5 DUP2 MLOAD DUP2 LT PUSH2 0x1A3 JUMPI PUSH2 0x1A2 PUSH2 0x4E1 JUMP JUMPDEST JUMPDEST PUSH1 0x20 MUL PUSH1 0x20 ADD ADD DUP2 DUP2 MSTORE POP POP DUP3 DUP1 PUSH2 0x1BA SWAP1 PUSH2 0x409 JUMP JUMPDEST SWAP4 POP POP JUMPDEST DUP2 DUP1 PUSH2 0x1C9 SWAP1 PUSH2 0x409 JUMP JUMPDEST SWAP3 POP POP PUSH2 0xF2 JUMP JUMPDEST DUP1 SWAP4 POP POP POP POP SWAP2 SWAP1 POP JUMP JUMPDEST PUSH1 0x0 PUSH1 0x2 DUP3 LT ISZERO PUSH2 0x1F0 JUMPI PUSH1 0x0 SWAP1 POP PUSH2 0x236 JUMP JUMPDEST PUSH1 0x0 PUSH1 0x2 SWAP1 POP JUMPDEST DUP3 DUP2 LT ISZERO PUSH2 0x230 JUMPI PUSH1 0x0 DUP2 DUP5 PUSH2 0x20D SWAP2 SWAP1 PUSH2 0x452 JUMP JUMPDEST EQ ISZERO PUSH2 0x21D JUMPI PUSH1 0x0 SWAP2 POP POP PUSH2 0x236 JUMP JUMPDEST DUP1 DUP1 PUSH2 0x228 SWAP1 PUSH2 0x409 JUMP JUMPDEST SWAP2 POP POP PUSH2 0x1F7 JUMP JUMPDEST POP PUSH1 0x1 SWAP1 POP JUMPDEST SWAP2 SWAP1 POP JUMP JUMPDEST PUSH1 0x0 DUP2 MLOAD SWAP1 POP PUSH2 0x24A DUP2 PUSH2 0x544 JUMP JUMPDEST SWAP3 SWAP2 POP POP JUMP JUMPDEST PUSH1 0x0 DUP2 CALLDATALOAD SWAP1 POP PUSH2 0x25F DUP2 PUSH2 0x55B JUMP JUMPDEST SWAP3 SWAP2 POP POP JUMP JUMPDEST PUSH1 0x0 PUSH1 0x20 DUP3 DUP5 SUB SLT ISZERO PUSH2 0x27B JUMPI PUSH2 0x27A PUSH2 0x53F JUMP JUMPDEST JUMPDEST PUSH1 0x0 PUSH2 0x289 DUP5 DUP3 DUP6 ADD PUSH2 0x23B JUMP JUMPDEST SWAP2 POP POP SWAP3 SWAP2 POP POP JUMP JUMPDEST PUSH1 0x0 PUSH1 0x20 DUP3 DUP5 SUB SLT ISZERO PUSH2 0x2A8 JUMPI PUSH2 0x2A7 PUSH2 0x53F JUMP JUMPDEST JUMPDEST PUSH1 0x0 PUSH2 0x2B6 DUP5 DUP3 DUP6 ADD PUSH2 0x250 JUMP JUMPDEST SWAP2 POP POP SWAP3 SWAP2 POP POP JUMP JUMPDEST PUSH1 0x0 PUSH2 0x2CB DUP4 DUP4 PUSH2 0x344 JUMP JUMPDEST PUSH1 0x20 DUP4 ADD SWAP1 POP SWAP3 SWAP2 POP POP JUMP JUMPDEST PUSH1 0x0 PUSH2 0x2E2 DUP3 PUSH2 0x3CA JUMP JUMPDEST PUSH2 0x2EC DUP2 DUP6 PUSH2 0x3E2 JUMP JUMPDEST SWAP4 POP PUSH2 0x2F7 DUP4 PUSH2 0x3BA JUMP JUMPDEST DUP1 PUSH1 0x0 JUMPDEST DUP4 DUP2 LT ISZERO PUSH2 0x328 JUMPI DUP2 MLOAD PUSH2 0x30F DUP9 DUP3 PUSH2 0x2BF JUMP JUMPDEST SWAP8 POP PUSH2 0x31A DUP4 PUSH2 0x3D5 JUMP JUMPDEST SWAP3 POP POP PUSH1 0x1 DUP2 ADD SWAP1 POP PUSH2 0x2FB JUMP JUMPDEST POP DUP6 SWAP4 POP POP POP POP SWAP3 SWAP2 POP POP JUMP JUMPDEST PUSH2 0x33E DUP2 PUSH2 0x3F3 JUMP JUMPDEST DUP3 MSTORE POP POP JUMP JUMPDEST PUSH2 0x34D DUP2 PUSH2 0x3FF JUMP JUMPDEST DUP3 MSTORE POP POP JUMP JUMPDEST PUSH2 0x35C DUP2 PUSH2 0x3FF JUMP JUMPDEST DUP3 MSTORE POP POP JUMP JUMPDEST PUSH1 0x0 PUSH1 0x20 DUP3 ADD SWAP1 POP DUP2 DUP2 SUB PUSH1 0x0 DUP4 ADD MSTORE PUSH2 0x37C DUP2 DUP5 PUSH2 0x2D7 JUMP JUMPDEST SWAP1 POP SWAP3 SWAP2 POP POP JUMP JUMPDEST PUSH1 0x0 PUSH1 0x20 DUP3 ADD SWAP1 POP PUSH2 0x399 PUSH1 0x0 DUP4 ADD DUP5 PUSH2 0x335 JUMP JUMPDEST SWAP3 SWAP2 POP POP JUMP JUMPDEST PUSH1 0x0 PUSH1 0x20 DUP3 ADD SWAP1 POP PUSH2 0x3B4 PUSH1 0x0 DUP4 ADD DUP5 PUSH2 0x353 JUMP JUMPDEST SWAP3 SWAP2 POP POP JUMP JUMPDEST PUSH1 0x0 DUP2 SWAP1 POP PUSH1 0x20 DUP3 ADD SWAP1 POP SWAP2 SWAP1 POP JUMP JUMPDEST PUSH1 0x0 DUP2 MLOAD SWAP1 POP SWAP2 SWAP1 POP JUMP JUMPDEST PUSH1 0x0 PUSH1 0x20 DUP3 ADD SWAP1 POP SWAP2 SWAP1 POP JUMP JUMPDEST PUSH1 0x0 DUP3 DUP3 MSTORE PUSH1 0x20 DUP3 ADD SWAP1 POP SWAP3 SWAP2 POP POP JUMP JUMPDEST PUSH1 0x0 DUP2 ISZERO ISZERO SWAP1 POP SWAP2 SWAP1 POP JUMP JUMPDEST PUSH1 0x0 DUP2 SWAP1 POP SWAP2 SWAP1 POP JUMP JUMPDEST PUSH1 0x0 PUSH2 0x414 DUP3 PUSH2 0x3FF JUMP JUMPDEST SWAP2 POP PUSH32 0xFFFFFFFFFFFFFFFFFFFFFFFFFFFFFFFFFFFFFFFFFFFFFFFFFFFFFFFFFFFFFFFF DUP3 EQ ISZERO PUSH2 0x447 JUMPI PUSH2 0x446 PUSH2 0x483 JUMP JUMPDEST JUMPDEST PUSH1 0x1 DUP3 ADD SWAP1 POP SWAP2 SWAP1 POP JUMP JUMPDEST PUSH1 0x0 PUSH2 0x45D DUP3 PUSH2 0x3FF JUMP JUMPDEST SWAP2 POP PUSH2 0x468 DUP4 PUSH2 0x3FF JUMP JUMPDEST SWAP3 POP DUP3 PUSH2 0x478 JUMPI PUSH2 0x477 PUSH2 0x4B2 JUMP JUMPDEST JUMPDEST DUP3 DUP3 MOD SWAP1 POP SWAP3 SWAP2 POP POP JUMP JUMPDEST PUSH32 0x4E487B7100000000000000000000000000000000000000000000000000000000 PUSH1 0x0 MSTORE PUSH1 0x11 PUSH1 0x4 MSTORE PUSH1 0x24 PUSH1 0x0 REVERT JUMPDEST PUSH32 0x4E487B7100000000000000000000000000000000000000000000000000000000 PUSH1 0x0 MSTORE PUSH1 0x12 PUSH1 0x4 MSTORE PUSH1 0x24 PUSH1 0x0 REVERT JUMPDEST PUSH32 0x4E487B7100000000000000000000000000000000000000000000000000000000 PUSH1 0x0 MSTORE PUSH1 0x32 PUSH1 0x4 MSTORE PUSH1 0x24 PUSH1 0x0 REVERT JUMPDEST PUSH32 0x4E487B7100000000000000000000000000000000000000000000000000000000 PUSH1 0x0 MSTORE PUSH1 0x41 PUSH1 0x4 MSTORE PUSH1 0x24 PUSH1 0x0 REVERT JUMPDEST PUSH1 0x0 DUP1 REVERT JUMPDEST PUSH2 0x54D DUP2 PUSH2 0x3F3 JUMP JUMPDEST DUP2 EQ PUSH2 0x558 JUMPI PUSH1 0x0 DUP1 REVERT JUMPDEST POP JUMP JUMPDEST PUSH2 0x564 DUP2 PUSH2 0x3FF JUMP JUMPDEST DUP2 EQ PUSH2 0x56F JUMPI PUSH1 0x0 DUP1 REVERT JUMPDEST POP JUMP INVALID LOG2 PUSH5 0x6970667358 0x22 SLT KECCAK256 0xEC JUMP SWAP9 JUMPI 0xE7 0xE8 SLOAD 0x2A SSTORE 0xC4 0x5E BASEFEE DUP12 0xD8 PUSH2 0x836C 0xB2 0x23 0xEF 0x2B PUSH10 0xF6EA82B4B0E9A68AE701 PUSH5 0x736F6C6343 STOP ADDMOD SMOD STOP CALLER "
				},
				"gasEstimates": {
					"creation": {
						"codeDepositCost": "289600",
						"executionCost": "331",
						"totalCost": "289931"
					},
					"external": {
						"isPrime(uint256)": "infinite",
						"printFirstPrime(uint256)": "infinite"
					}
				},
				"methodIdentifiers": {
					"isPrime(uint256)": "42703494",
					"printFirstPrime(uint256)": "035ea91e"
				}
			},
			"storageLayout": {
				"storage": [],
				"types": null
			},
			"userdoc": {
				"kind": "user",
				"methods": {},
				"version": 1
			}
		}
	}
}